{
  "contractName": "SharedAccount",
  "abi": [
    {
      "inputs": [
        {
          "internalType": "string",
          "name": "accountName",
          "type": "string"
        },
        {
          "internalType": "string",
          "name": "accountDescription",
          "type": "string"
        },
        {
          "internalType": "string",
          "name": "erc20Name",
          "type": "string"
        },
        {
          "internalType": "address",
          "name": "erc20Address",
          "type": "address"
        },
        {
          "internalType": "address",
          "name": "feeTo",
          "type": "address"
        }
      ],
      "stateMutability": "nonpayable",
      "type": "constructor"
    },
    {
      "anonymous": false,
      "inputs": [
        {
          "indexed": true,
          "internalType": "address",
          "name": "previousOwner",
          "type": "address"
        },
        {
          "indexed": true,
          "internalType": "address",
          "name": "newOwner",
          "type": "address"
        }
      ],
      "name": "OwnershipTransferred",
      "type": "event"
    },
    {
      "anonymous": false,
      "inputs": [
        {
          "indexed": false,
          "internalType": "address",
          "name": "sender",
          "type": "address"
        },
        {
          "indexed": false,
          "internalType": "uint256",
          "name": "amount",
          "type": "uint256"
        }
      ],
      "name": "ReceiveDeposit",
      "type": "event"
    },
    {
      "anonymous": false,
      "inputs": [
        {
          "indexed": true,
          "internalType": "bytes32",
          "name": "role",
          "type": "bytes32"
        },
        {
          "indexed": true,
          "internalType": "bytes32",
          "name": "previousAdminRole",
          "type": "bytes32"
        },
        {
          "indexed": true,
          "internalType": "bytes32",
          "name": "newAdminRole",
          "type": "bytes32"
        }
      ],
      "name": "RoleAdminChanged",
      "type": "event"
    },
    {
      "anonymous": false,
      "inputs": [
        {
          "indexed": true,
          "internalType": "bytes32",
          "name": "role",
          "type": "bytes32"
        },
        {
          "indexed": true,
          "internalType": "address",
          "name": "account",
          "type": "address"
        },
        {
          "indexed": true,
          "internalType": "address",
          "name": "sender",
          "type": "address"
        }
      ],
      "name": "RoleGranted",
      "type": "event"
    },
    {
      "anonymous": false,
      "inputs": [
        {
          "indexed": true,
          "internalType": "bytes32",
          "name": "role",
          "type": "bytes32"
        },
        {
          "indexed": true,
          "internalType": "address",
          "name": "account",
          "type": "address"
        },
        {
          "indexed": true,
          "internalType": "address",
          "name": "sender",
          "type": "address"
        }
      ],
      "name": "RoleRevoked",
      "type": "event"
    },
    {
      "anonymous": false,
      "inputs": [
        {
          "indexed": false,
          "internalType": "address",
          "name": "to",
          "type": "address"
        },
        {
          "indexed": false,
          "internalType": "uint256",
          "name": "amount",
          "type": "uint256"
        }
      ],
      "name": "Withdraw",
      "type": "event"
    },
    {
      "inputs": [],
      "name": "ADMIN_ROLE",
      "outputs": [
        {
          "internalType": "bytes32",
          "name": "",
          "type": "bytes32"
        }
      ],
      "stateMutability": "view",
      "type": "function"
    },
    {
      "inputs": [],
      "name": "DEFAULT_ADMIN_ROLE",
      "outputs": [
        {
          "internalType": "bytes32",
          "name": "",
          "type": "bytes32"
        }
      ],
      "stateMutability": "view",
      "type": "function"
    },
    {
      "inputs": [
        {
          "internalType": "bytes32",
          "name": "role",
          "type": "bytes32"
        }
      ],
      "name": "getRoleAdmin",
      "outputs": [
        {
          "internalType": "bytes32",
          "name": "",
          "type": "bytes32"
        }
      ],
      "stateMutability": "view",
      "type": "function"
    },
    {
      "inputs": [
        {
          "internalType": "bytes32",
          "name": "role",
          "type": "bytes32"
        },
        {
          "internalType": "uint256",
          "name": "index",
          "type": "uint256"
        }
      ],
      "name": "getRoleMember",
      "outputs": [
        {
          "internalType": "address",
          "name": "",
          "type": "address"
        }
      ],
      "stateMutability": "view",
      "type": "function"
    },
    {
      "inputs": [
        {
          "internalType": "bytes32",
          "name": "role",
          "type": "bytes32"
        }
      ],
      "name": "getRoleMemberCount",
      "outputs": [
        {
          "internalType": "uint256",
          "name": "",
          "type": "uint256"
        }
      ],
      "stateMutability": "view",
      "type": "function"
    },
    {
      "inputs": [
        {
          "internalType": "bytes32",
          "name": "role",
          "type": "bytes32"
        },
        {
          "internalType": "address",
          "name": "account",
          "type": "address"
        }
      ],
      "name": "grantRole",
      "outputs": [],
      "stateMutability": "nonpayable",
      "type": "function"
    },
    {
      "inputs": [
        {
          "internalType": "bytes32",
          "name": "role",
          "type": "bytes32"
        },
        {
          "internalType": "address",
          "name": "account",
          "type": "address"
        }
      ],
      "name": "hasRole",
      "outputs": [
        {
          "internalType": "bool",
          "name": "",
          "type": "bool"
        }
      ],
      "stateMutability": "view",
      "type": "function"
    },
    {
      "inputs": [],
      "name": "owner",
      "outputs": [
        {
          "internalType": "address",
          "name": "",
          "type": "address"
        }
      ],
      "stateMutability": "view",
      "type": "function"
    },
    {
      "inputs": [],
      "name": "renounceOwnership",
      "outputs": [],
      "stateMutability": "nonpayable",
      "type": "function"
    },
    {
      "inputs": [
        {
          "internalType": "bytes32",
          "name": "role",
          "type": "bytes32"
        },
        {
          "internalType": "address",
          "name": "account",
          "type": "address"
        }
      ],
      "name": "renounceRole",
      "outputs": [],
      "stateMutability": "nonpayable",
      "type": "function"
    },
    {
      "inputs": [
        {
          "internalType": "bytes32",
          "name": "role",
          "type": "bytes32"
        },
        {
          "internalType": "address",
          "name": "account",
          "type": "address"
        }
      ],
      "name": "revokeRole",
      "outputs": [],
      "stateMutability": "nonpayable",
      "type": "function"
    },
    {
      "inputs": [
        {
          "internalType": "address",
          "name": "newOwner",
          "type": "address"
        }
      ],
      "name": "transferOwnership",
      "outputs": [],
      "stateMutability": "nonpayable",
      "type": "function"
    },
    {
      "inputs": [
        {
          "internalType": "address",
          "name": "newAdmin",
          "type": "address"
        }
      ],
      "name": "grantAdminRole",
      "outputs": [
        {
          "internalType": "bool",
          "name": "",
          "type": "bool"
        }
      ],
      "stateMutability": "nonpayable",
      "type": "function"
    },
    {
      "inputs": [
        {
          "internalType": "address",
          "name": "newAdmin",
          "type": "address"
        }
      ],
      "name": "removeAdminRole",
      "outputs": [
        {
          "internalType": "bool",
          "name": "",
          "type": "bool"
        }
      ],
      "stateMutability": "nonpayable",
      "type": "function"
    },
    {
      "inputs": [
        {
          "internalType": "string",
          "name": "erc20Name",
          "type": "string"
        },
        {
          "internalType": "address",
          "name": "erc20Address",
          "type": "address"
        }
      ],
      "name": "addErc20",
      "outputs": [
        {
          "internalType": "bool",
          "name": "",
          "type": "bool"
        }
      ],
      "stateMutability": "nonpayable",
      "type": "function"
    },
    {
      "inputs": [
        {
          "internalType": "string",
          "name": "erc20Name",
          "type": "string"
        }
      ],
      "name": "removeErc20",
      "outputs": [
        {
          "internalType": "bool",
          "name": "",
          "type": "bool"
        }
      ],
      "stateMutability": "nonpayable",
      "type": "function"
    },
    {
      "inputs": [
        {
          "internalType": "string",
          "name": "erc20Name",
          "type": "string"
        },
        {
          "internalType": "uint256",
          "name": "amount",
          "type": "uint256"
        }
      ],
      "name": "deposit",
      "outputs": [
        {
          "internalType": "bool",
          "name": "",
          "type": "bool"
        }
      ],
      "stateMutability": "nonpayable",
      "type": "function"
    },
    {
      "inputs": [
        {
          "internalType": "string",
          "name": "erc20Name",
          "type": "string"
        },
        {
          "internalType": "address",
          "name": "to",
          "type": "address"
        },
        {
          "internalType": "uint256",
          "name": "amount",
          "type": "uint256"
        }
      ],
      "name": "withdraw",
      "outputs": [
        {
          "internalType": "bool",
          "name": "",
          "type": "bool"
        }
      ],
      "stateMutability": "nonpayable",
      "type": "function"
    }
  ],
  "bytecode": "0x60806040523480156200001157600080fd5b506040516200286438038062002864833981810160405260a08110156200003757600080fd5b81019080805160405193929190846401000000008211156200005857600080fd5b838201915060208201858111156200006f57600080fd5b82518660018202830111640100000000821117156200008d57600080fd5b8083526020830192505050908051906020019080838360005b83811015620000c3578082015181840152602081019050620000a6565b50505050905090810190601f168015620000f15780820380516001836020036101000a031916815260200191505b50604052602001805160405193929190846401000000008211156200011557600080fd5b838201915060208201858111156200012c57600080fd5b82518660018202830111640100000000821117156200014a57600080fd5b8083526020830192505050908051906020019080838360005b838110156200018057808201518184015260208101905062000163565b50505050905090810190601f168015620001ae5780820380516001836020036101000a031916815260200191505b5060405260200180516040519392919084640100000000821115620001d257600080fd5b83820191506020820185811115620001e957600080fd5b82518660018202830111640100000000821117156200020757600080fd5b8083526020830192505050908051906020019080838360005b838110156200023d57808201518184015260208101905062000220565b50505050905090810190601f1680156200026b5780820380516001836020036101000a031916815260200191505b50604052602001805190602001909291908051906020019092919050505060006200029b620004c660201b60201c565b9050806000806101000a81548173ffffffffffffffffffffffffffffffffffffffff021916908373ffffffffffffffffffffffffffffffffffffffff1602179055508073ffffffffffffffffffffffffffffffffffffffff16600073ffffffffffffffffffffffffffffffffffffffff167f8be0079c531659141344cd1fd0a4f28419497f9722a3daafe3b4186f6b6457e060405160405180910390a3506200035d6000801b62000351620004c660201b60201c565b620004ce60201b60201c565b6200039e7fa49807205ce4d355092ef5a8a18f56e8913cf4a201fbe287825b095693c2177562000392620004c660201b60201c565b620004ce60201b60201c565b8460029080519060200190620003b69291906200065d565b508360039080519060200190620003cf9291906200065d565b50816005846040518082805190602001908083835b60208310620004095780518252602082019150602081019050602083039250620003e4565b6001836020036101000a038019825116818451168082178552505050505050905001915050908152602001604051809103902060006101000a81548173ffffffffffffffffffffffffffffffffffffffff021916908373ffffffffffffffffffffffffffffffffffffffff16021790555080600460006101000a81548173ffffffffffffffffffffffffffffffffffffffff021916908373ffffffffffffffffffffffffffffffffffffffff160217905550505050505062000703565b600033905090565b620004e08282620004e460201b60201c565b5050565b6200051381600160008581526020019081526020016000206000016200058860201b62001a621790919060201c565b15620005845762000529620004c660201b60201c565b73ffffffffffffffffffffffffffffffffffffffff168173ffffffffffffffffffffffffffffffffffffffff16837f2f8788117e7eff1d82e926ec794901d17c78024a50270940304540a733656f0d60405160405180910390a45b5050565b6000620005b8836000018373ffffffffffffffffffffffffffffffffffffffff1660001b620005c060201b60201c565b905092915050565b6000620005d483836200063a60201b60201c565b6200062f57826000018290806001815401808255809150506001900390600052602060002001600090919091909150558260000180549050836001016000848152602001908152602001600020819055506001905062000634565b600090505b92915050565b600080836001016000848152602001908152602001600020541415905092915050565b828054600181600116156101000203166002900490600052602060002090601f016020900481019282601f10620006a057805160ff1916838001178555620006d1565b82800160010185558215620006d1579182015b82811115620006d0578251825591602001919060010190620006b3565b5b509050620006e09190620006e4565b5090565b5b80821115620006ff576000816000905550600101620006e5565b5090565b61215180620007136000396000f3fe608060405234801561001057600080fd5b50600436106101165760003560e01c806391d14854116100a2578063ca15c87311610071578063ca15c8731461065a578063d547741f1461069c578063dccfe310146106ea578063e80a1bbb14610744578063f2fde38b1461081557610116565b806391d148541461048d578063a1e55e59146104f1578063a217fddf146105e2578063c634b78e1461060057610116565b8063715018a6116100e9578063715018a6146102f457806375b238fc146102fe5780638da5cb5b1461031c5780638e27d719146103505780639010d07c1461042b57610116565b8063248a9ca31461011b5780632f2ff15d1461015d57806336568abe146101ab5780635a73b0bf146101f9575b600080fd5b6101476004803603602081101561013157600080fd5b8101908080359060200190929190505050610859565b6040518082815260200191505060405180910390f35b6101a96004803603604081101561017357600080fd5b8101908080359060200190929190803573ffffffffffffffffffffffffffffffffffffffff169060200190929190505050610879565b005b6101f7600480360360408110156101c157600080fd5b8101908080359060200190929190803573ffffffffffffffffffffffffffffffffffffffff169060200190929190505050610903565b005b6102dc6004803603606081101561020f57600080fd5b810190808035906020019064010000000081111561022c57600080fd5b82018360208201111561023e57600080fd5b8035906020019184600183028401116401000000008311171561026057600080fd5b91908080601f016020809104026020016040519081016040528093929190818152602001838380828437600081840152601f19601f820116905080830192505050505050509192919290803573ffffffffffffffffffffffffffffffffffffffff1690602001909291908035906020019092919050505061099c565b60405180821515815260200191505060405180910390f35b6102fc610f76565b005b6103066110fc565b6040518082815260200191505060405180910390f35b610324611120565b604051808273ffffffffffffffffffffffffffffffffffffffff16815260200191505060405180910390f35b6104136004803603604081101561036657600080fd5b810190808035906020019064010000000081111561038357600080fd5b82018360208201111561039557600080fd5b803590602001918460018302840111640100000000831117156103b757600080fd5b91908080601f016020809104026020016040519081016040528093929190818152602001838380828437600081840152601f19601f82011690508083019250505050505050919291929080359060200190929190505050611149565b60405180821515815260200191505060405180910390f35b6104616004803603604081101561044157600080fd5b810190808035906020019092919080359060200190929190505050611423565b604051808273ffffffffffffffffffffffffffffffffffffffff16815260200191505060405180910390f35b6104d9600480360360408110156104a357600080fd5b8101908080359060200190929190803573ffffffffffffffffffffffffffffffffffffffff169060200190929190505050611455565b60405180821515815260200191505060405180910390f35b6105ca6004803603604081101561050757600080fd5b810190808035906020019064010000000081111561052457600080fd5b82018360208201111561053657600080fd5b8035906020019184600183028401116401000000008311171561055857600080fd5b91908080601f016020809104026020016040519081016040528093929190818152602001838380828437600081840152601f19601f820116905080830192505050505050509192919290803573ffffffffffffffffffffffffffffffffffffffff169060200190929190505050611487565b60405180821515815260200191505060405180910390f35b6105ea6115de565b6040518082815260200191505060405180910390f35b6106426004803603602081101561061657600080fd5b81019080803573ffffffffffffffffffffffffffffffffffffffff1690602001909291905050506115e5565b60405180821515815260200191505060405180910390f35b6106866004803603602081101561067057600080fd5b810190808035906020019092919050505061161a565b6040518082815260200191505060405180910390f35b6106e8600480360360408110156106b257600080fd5b8101908080359060200190929190803573ffffffffffffffffffffffffffffffffffffffff169060200190929190505050611641565b005b61072c6004803603602081101561070057600080fd5b81019080803573ffffffffffffffffffffffffffffffffffffffff1690602001909291905050506116cb565b60405180821515815260200191505060405180910390f35b6107fd6004803603602081101561075a57600080fd5b810190808035906020019064010000000081111561077757600080fd5b82018360208201111561078957600080fd5b803590602001918460018302840111640100000000831117156107ab57600080fd5b91908080601f016020809104026020016040519081016040528093929190818152602001838380828437600081840152601f19601f820116905080830192505050505050509192919290505050611700565b60405180821515815260200191505060405180910390f35b6108576004803603602081101561082b57600080fd5b81019080803573ffffffffffffffffffffffffffffffffffffffff169060200190929190505050611857565b005b600060016000838152602001908152602001600020600201549050919050565b6108a0600160008481526020019081526020016000206002015461089b611a92565b611455565b6108f5576040517f08c379a000000000000000000000000000000000000000000000000000000000815260040180806020018281038252602f815260200180612019602f913960400191505060405180910390fd5b6108ff8282611a9a565b5050565b61090b611a92565b73ffffffffffffffffffffffffffffffffffffffff168173ffffffffffffffffffffffffffffffffffffffff161461098e576040517f08c379a000000000000000000000000000000000000000000000000000000000815260040180806020018281038252602f8152602001806120ed602f913960400191505060405180910390fd5b6109988282611b2e565b5050565b600083600073ffffffffffffffffffffffffffffffffffffffff166005826040518082805190602001908083835b602083106109ed57805182526020820191506020810190506020830392506109ca565b6001836020036101000a038019825116818451168082178552505050505050905001915050908152602001604051809103902060009054906101000a900473ffffffffffffffffffffffffffffffffffffffff1673ffffffffffffffffffffffffffffffffffffffff161415610aae576040517f08c379a000000000000000000000000000000000000000000000000000000000815260040180806020018281038252602e8152602001806120bf602e913960400191505060405180910390fd5b610adf7fa49807205ce4d355092ef5a8a18f56e8913cf4a201fbe287825b095693c21775610ada611a92565b611455565b610b51576040517f08c379a00000000000000000000000000000000000000000000000000000000081526004018080602001828103825260168152602001807f43616c6c6572206973206e6f7420616e2041646d696e0000000000000000000081525060200191505060405180910390fd5b60006005866040518082805190602001908083835b60208310610b895780518252602082019150602081019050602083039250610b66565b6001836020036101000a038019825116818451168082178552505050505050905001915050908152602001604051809103902060009054906101000a900473ffffffffffffffffffffffffffffffffffffffff1690506000610bf7610bef866004611bc2565b6103e8611c48565b9050600081860390508273ffffffffffffffffffffffffffffffffffffffff1663095ea7b330836040518363ffffffff1660e01b8152600401808373ffffffffffffffffffffffffffffffffffffffff16815260200182815260200192505050602060405180830381600087803b158015610c7157600080fd5b505af1158015610c85573d6000803e3d6000fd5b505050506040513d6020811015610c9b57600080fd5b8101908080519060200190929190505050508273ffffffffffffffffffffffffffffffffffffffff166323b872dd3089846040518463ffffffff1660e01b8152600401808473ffffffffffffffffffffffffffffffffffffffff1681526020018373ffffffffffffffffffffffffffffffffffffffff1681526020018281526020019350505050602060405180830381600087803b158015610d3c57600080fd5b505af1158015610d50573d6000803e3d6000fd5b505050506040513d6020811015610d6657600080fd5b8101908080519060200190929190505050508273ffffffffffffffffffffffffffffffffffffffff1663095ea7b330846040518363ffffffff1660e01b8152600401808373ffffffffffffffffffffffffffffffffffffffff16815260200182815260200192505050602060405180830381600087803b158015610de957600080fd5b505af1158015610dfd573d6000803e3d6000fd5b505050506040513d6020811015610e1357600080fd5b8101908080519060200190929190505050508273ffffffffffffffffffffffffffffffffffffffff166323b872dd30600460009054906101000a900473ffffffffffffffffffffffffffffffffffffffff16856040518463ffffffff1660e01b8152600401808473ffffffffffffffffffffffffffffffffffffffff1681526020018373ffffffffffffffffffffffffffffffffffffffff1681526020018281526020019350505050602060405180830381600087803b158015610ed657600080fd5b505af1158015610eea573d6000803e3d6000fd5b505050506040513d6020811015610f0057600080fd5b8101908080519060200190929190505050507f884edad9ce6fa2440d8a54cc123490eb96d2768479d49ff9c7366125a94243648782604051808373ffffffffffffffffffffffffffffffffffffffff1681526020018281526020019250505060405180910390a160019450505050509392505050565b610f7e611a92565b73ffffffffffffffffffffffffffffffffffffffff1660008054906101000a900473ffffffffffffffffffffffffffffffffffffffff1673ffffffffffffffffffffffffffffffffffffffff161461103e576040517f08c379a00000000000000000000000000000000000000000000000000000000081526004018080602001828103825260208152602001807f4f776e61626c653a2063616c6c6572206973206e6f7420746865206f776e657281525060200191505060405180910390fd5b600073ffffffffffffffffffffffffffffffffffffffff1660008054906101000a900473ffffffffffffffffffffffffffffffffffffffff1673ffffffffffffffffffffffffffffffffffffffff167f8be0079c531659141344cd1fd0a4f28419497f9722a3daafe3b4186f6b6457e060405160405180910390a360008060006101000a81548173ffffffffffffffffffffffffffffffffffffffff021916908373ffffffffffffffffffffffffffffffffffffffff160217905550565b7fa49807205ce4d355092ef5a8a18f56e8913cf4a201fbe287825b095693c2177581565b60008060009054906101000a900473ffffffffffffffffffffffffffffffffffffffff16905090565b600082600073ffffffffffffffffffffffffffffffffffffffff166005826040518082805190602001908083835b6020831061119a5780518252602082019150602081019050602083039250611177565b6001836020036101000a038019825116818451168082178552505050505050905001915050908152602001604051809103902060009054906101000a900473ffffffffffffffffffffffffffffffffffffffff1673ffffffffffffffffffffffffffffffffffffffff16141561125b576040517f08c379a000000000000000000000000000000000000000000000000000000000815260040180806020018281038252602e8152602001806120bf602e913960400191505060405180910390fd5b60006005856040518082805190602001908083835b602083106112935780518252602082019150602081019050602083039250611270565b6001836020036101000a038019825116818451168082178552505050505050905001915050908152602001604051809103902060009054906101000a900473ffffffffffffffffffffffffffffffffffffffff1690508073ffffffffffffffffffffffffffffffffffffffff166323b872dd61130d611a92565b30876040518463ffffffff1660e01b8152600401808473ffffffffffffffffffffffffffffffffffffffff1681526020018373ffffffffffffffffffffffffffffffffffffffff1681526020018281526020019350505050602060405180830381600087803b15801561137f57600080fd5b505af1158015611393573d6000803e3d6000fd5b505050506040513d60208110156113a957600080fd5b8101908080519060200190929190505050507fd4f7d34af79a91579ffbb26e18ffb9866c734383ca40131b18e2ca4db8f6649c6113e4611a92565b85604051808373ffffffffffffffffffffffffffffffffffffffff1681526020018281526020019250505060405180910390a160019250505092915050565b600061144d8260016000868152602001908152602001600020600001611c9290919063ffffffff16565b905092915050565b600061147f8260016000868152602001908152602001600020600001611cac90919063ffffffff16565b905092915050565b60006114ba7fa49807205ce4d355092ef5a8a18f56e8913cf4a201fbe287825b095693c217756114b5611a92565b611455565b61152c576040517f08c379a00000000000000000000000000000000000000000000000000000000081526004018080602001828103825260168152602001807f43616c6c6572206973206e6f7420616e2041646d696e0000000000000000000081525060200191505060405180910390fd5b816005846040518082805190602001908083835b602083106115635780518252602082019150602081019050602083039250611540565b6001836020036101000a038019825116818451168082178552505050505050905001915050908152602001604051809103902060006101000a81548173ffffffffffffffffffffffffffffffffffffffff021916908373ffffffffffffffffffffffffffffffffffffffff1602179055506001905092915050565b6000801b81565b60006116117fa49807205ce4d355092ef5a8a18f56e8913cf4a201fbe287825b095693c2177583610879565b60019050919050565b600061163a60016000848152602001908152602001600020600001611cdc565b9050919050565b6116686001600084815260200190815260200160002060020154611663611a92565b611455565b6116bd576040517f08c379a000000000000000000000000000000000000000000000000000000000815260040180806020018281038252603081526020018061206e6030913960400191505060405180910390fd5b6116c78282611b2e565b5050565b60006116f77fa49807205ce4d355092ef5a8a18f56e8913cf4a201fbe287825b095693c2177583611641565b60019050919050565b60006117337fa49807205ce4d355092ef5a8a18f56e8913cf4a201fbe287825b095693c2177561172e611a92565b611455565b6117a5576040517f08c379a00000000000000000000000000000000000000000000000000000000081526004018080602001828103825260168152602001807f43616c6c6572206973206e6f7420616e2041646d696e0000000000000000000081525060200191505060405180910390fd5b60006005836040518082805190602001908083835b602083106117dd57805182526020820191506020810190506020830392506117ba565b6001836020036101000a038019825116818451168082178552505050505050905001915050908152602001604051809103902060006101000a81548173ffffffffffffffffffffffffffffffffffffffff021916908373ffffffffffffffffffffffffffffffffffffffff16021790555060019050919050565b61185f611a92565b73ffffffffffffffffffffffffffffffffffffffff1660008054906101000a900473ffffffffffffffffffffffffffffffffffffffff1673ffffffffffffffffffffffffffffffffffffffff161461191f576040517f08c379a00000000000000000000000000000000000000000000000000000000081526004018080602001828103825260208152602001807f4f776e61626c653a2063616c6c6572206973206e6f7420746865206f776e657281525060200191505060405180910390fd5b600073ffffffffffffffffffffffffffffffffffffffff168173ffffffffffffffffffffffffffffffffffffffff1614156119a5576040517f08c379a00000000000000000000000000000000000000000000000000000000081526004018080602001828103825260268152602001806120486026913960400191505060405180910390fd5b8073ffffffffffffffffffffffffffffffffffffffff1660008054906101000a900473ffffffffffffffffffffffffffffffffffffffff1673ffffffffffffffffffffffffffffffffffffffff167f8be0079c531659141344cd1fd0a4f28419497f9722a3daafe3b4186f6b6457e060405160405180910390a3806000806101000a81548173ffffffffffffffffffffffffffffffffffffffff021916908373ffffffffffffffffffffffffffffffffffffffff16021790555050565b6000611a8a836000018373ffffffffffffffffffffffffffffffffffffffff1660001b611cf1565b905092915050565b600033905090565b611ac28160016000858152602001908152602001600020600001611a6290919063ffffffff16565b15611b2a57611acf611a92565b73ffffffffffffffffffffffffffffffffffffffff168173ffffffffffffffffffffffffffffffffffffffff16837f2f8788117e7eff1d82e926ec794901d17c78024a50270940304540a733656f0d60405160405180910390a45b5050565b611b568160016000858152602001908152602001600020600001611d6190919063ffffffff16565b15611bbe57611b63611a92565b73ffffffffffffffffffffffffffffffffffffffff168173ffffffffffffffffffffffffffffffffffffffff16837ff6391f5c32d9c69d2a47ea670b442974b53935d1edc7fd64eb21e047a839171b60405160405180910390a45b5050565b600080831415611bd55760009050611c42565b6000828402905082848281611be657fe5b0414611c3d576040517f08c379a000000000000000000000000000000000000000000000000000000000815260040180806020018281038252602181526020018061209e6021913960400191505060405180910390fd5b809150505b92915050565b6000611c8a83836040518060400160405280601a81526020017f536166654d6174683a206469766973696f6e206279207a65726f000000000000815250611d91565b905092915050565b6000611ca18360000183611e57565b60001c905092915050565b6000611cd4836000018373ffffffffffffffffffffffffffffffffffffffff1660001b611eda565b905092915050565b6000611cea82600001611efd565b9050919050565b6000611cfd8383611eda565b611d56578260000182908060018154018082558091505060019003906000526020600020016000909190919091505582600001805490508360010160008481526020019081526020016000208190555060019050611d5b565b600090505b92915050565b6000611d89836000018373ffffffffffffffffffffffffffffffffffffffff1660001b611f0e565b905092915050565b60008083118290611e3d576040517f08c379a00000000000000000000000000000000000000000000000000000000081526004018080602001828103825283818151815260200191508051906020019080838360005b83811015611e02578082015181840152602081019050611de7565b50505050905090810190601f168015611e2f5780820380516001836020036101000a031916815260200191505b509250505060405180910390fd5b506000838581611e4957fe5b049050809150509392505050565b600081836000018054905011611eb8576040517f08c379a0000000000000000000000000000000000000000000000000000000008152600401808060200182810382526022815260200180611ff76022913960400191505060405180910390fd5b826000018281548110611ec757fe5b9060005260206000200154905092915050565b600080836001016000848152602001908152602001600020541415905092915050565b600081600001805490509050919050565b60008083600101600084815260200190815260200160002054905060008114611fea5760006001820390506000600186600001805490500390506000866000018281548110611f5957fe5b9060005260206000200154905080876000018481548110611f7657fe5b9060005260206000200181905550600183018760010160008381526020019081526020016000208190555086600001805480611fae57fe5b60019003818190600052602060002001600090559055866001016000878152602001908152602001600020600090556001945050505050611ff0565b60009150505b9291505056fe456e756d657261626c655365743a20696e646578206f7574206f6620626f756e6473416363657373436f6e74726f6c3a2073656e646572206d75737420626520616e2061646d696e20746f206772616e744f776e61626c653a206e6577206f776e657220697320746865207a65726f2061646472657373416363657373436f6e74726f6c3a2073656e646572206d75737420626520616e2061646d696e20746f207265766f6b65536166654d6174683a206d756c7469706c69636174696f6e206f766572666c6f775468697320736861726564206163636f756e7420646f65736e277420737570706f72742074686973206572633230416363657373436f6e74726f6c3a2063616e206f6e6c792072656e6f756e636520726f6c657320666f722073656c66a26469706673582212200a9bf39cad10416d1558346eebc75d2905d8e5c18a1cc2ab0b083d4fa46d613664736f6c63430007000033",
  "immutableReferences": {},
  "source": "// SPDX-License-Identifier: MIT\npragma solidity >=0.7.0;\n\nimport \"@openzeppelin/contracts/token/ERC20/ERC20.sol\";\nimport \"@openzeppelin/contracts/access/AccessControl.sol\";\nimport \"@openzeppelin/contracts/access/Ownable.sol\";\nimport \"@openzeppelin/contracts/math/SafeMath.sol\";\n\ninterface ISharedAccount {\n    function grantAdminRole(address newAdmin) external returns (bool);\n\n    function removeAdminRole(address newAdmin) external returns (bool);\n}\n\ncontract SharedAccount is Ownable, AccessControl {\n    bytes32 public constant ADMIN_ROLE = keccak256(\"ADMIN_ROLE\");\n\n    string name;\n    string description;\n    address redirectFeeTo;\n\n    mapping(string => address) supportedERC20;\n\n    event ReceiveDeposit(address sender, uint256 amount);\n\n    event Withdraw(address to, uint256 amount);\n\n    modifier supportErc20(string memory erc20) {\n        require(\n            supportedERC20[erc20] != address(0),\n            \"This shared account doesn't support this erc20\"\n        );\n        _;\n    }\n\n    modifier onlyAdmin() {\n        require(hasRole(ADMIN_ROLE, _msgSender()), \"Caller is not an Admin\");\n        _;\n    }\n\n    constructor(\n        string memory accountName,\n        string memory accountDescription,\n        string memory erc20Name,\n        address erc20Address,\n        address feeTo\n    ) {\n        _setupRole(DEFAULT_ADMIN_ROLE, _msgSender());\n        _setupRole(ADMIN_ROLE, _msgSender());\n        name = accountName;\n        description = accountDescription;\n        supportedERC20[erc20Name] = erc20Address;\n        redirectFeeTo = feeTo;\n    }\n\n    function grantAdminRole(address newAdmin) public returns (bool) {\n        grantRole(ADMIN_ROLE, newAdmin);\n        return true;\n    }\n\n    function removeAdminRole(address newAdmin) public returns (bool) {\n        revokeRole(ADMIN_ROLE, newAdmin);\n        return true;\n    }\n\n    function addErc20(string memory erc20Name, address erc20Address)\n        public\n        onlyAdmin\n        returns (bool)\n    {\n        supportedERC20[erc20Name] = erc20Address;\n        return true;\n    }\n\n    function removeErc20(string memory erc20Name)\n        public\n        onlyAdmin\n        returns (bool)\n    {\n        supportedERC20[erc20Name] = address(0);\n        return true;\n    }\n\n    function deposit(string memory erc20Name, uint256 amount)\n        public\n        supportErc20(erc20Name)\n        returns (bool)\n    {\n        IERC20 erc20 = ERC20(supportedERC20[erc20Name]);\n        erc20.transferFrom(_msgSender(), address(this), amount);\n        emit ReceiveDeposit(_msgSender(), amount);\n        return true;\n    }\n\n    function withdraw(\n        string memory erc20Name,\n        address to,\n        uint256 amount\n    ) public supportErc20(erc20Name) onlyAdmin returns (bool) {\n        IERC20 erc20 = ERC20(supportedERC20[erc20Name]);\n\n        uint256 fee = SafeMath.div(SafeMath.mul(amount, 4), 1000);\n        uint256 total = amount - fee;\n        erc20.approve(address(this), total);\n        erc20.transferFrom(address(this), to, total);\n        erc20.approve(address(this), fee);\n        erc20.transferFrom(address(this), redirectFeeTo, fee);\n        emit Withdraw(to, total);\n        return true;\n    }\n}\n",
  "sourcePath": "/home/kleak/Work/github.com/Les-ruisseulleurs/shared_account/contracts/SharedAccount.sol",
  "compiler": {
    "name": "solc",
    "version": "0.7.0+commit.9e61f92b.Emscripten.clang"
  },
  "schemaVersion": "3.3.2",
  "updatedAt": "2021-01-17T18:26:32.839Z",
  "devdoc": {
    "kind": "dev",
    "methods": {
      "getRoleAdmin(bytes32)": {
        "details": "Returns the admin role that controls `role`. See {grantRole} and {revokeRole}. To change a role's admin, use {_setRoleAdmin}."
      },
      "getRoleMember(bytes32,uint256)": {
        "details": "Returns one of the accounts that have `role`. `index` must be a value between 0 and {getRoleMemberCount}, non-inclusive. Role bearers are not sorted in any particular way, and their ordering may change at any point. WARNING: When using {getRoleMember} and {getRoleMemberCount}, make sure you perform all queries on the same block. See the following https://forum.openzeppelin.com/t/iterating-over-elements-on-enumerableset-in-openzeppelin-contracts/2296[forum post] for more information."
      },
      "getRoleMemberCount(bytes32)": {
        "details": "Returns the number of accounts that have `role`. Can be used together with {getRoleMember} to enumerate all bearers of a role."
      },
      "grantRole(bytes32,address)": {
        "details": "Grants `role` to `account`. If `account` had not been already granted `role`, emits a {RoleGranted} event. Requirements: - the caller must have ``role``'s admin role."
      },
      "hasRole(bytes32,address)": {
        "details": "Returns `true` if `account` has been granted `role`."
      },
      "owner()": {
        "details": "Returns the address of the current owner."
      },
      "renounceOwnership()": {
        "details": "Leaves the contract without owner. It will not be possible to call `onlyOwner` functions anymore. Can only be called by the current owner. NOTE: Renouncing ownership will leave the contract without an owner, thereby removing any functionality that is only available to the owner."
      },
      "renounceRole(bytes32,address)": {
        "details": "Revokes `role` from the calling account. Roles are often managed via {grantRole} and {revokeRole}: this function's purpose is to provide a mechanism for accounts to lose their privileges if they are compromised (such as when a trusted device is misplaced). If the calling account had been granted `role`, emits a {RoleRevoked} event. Requirements: - the caller must be `account`."
      },
      "revokeRole(bytes32,address)": {
        "details": "Revokes `role` from `account`. If `account` had been granted `role`, emits a {RoleRevoked} event. Requirements: - the caller must have ``role``'s admin role."
      },
      "transferOwnership(address)": {
        "details": "Transfers ownership of the contract to a new account (`newOwner`). Can only be called by the current owner."
      }
    },
    "version": 1
  },
  "userdoc": {
    "kind": "user",
    "methods": {},
    "version": 1
  }
}