{
  "contractName": "SharedAccountManager",
  "abi": [
    {
      "inputs": [
        {
          "internalType": "address",
          "name": "feeTo",
          "type": "address"
        }
      ],
      "stateMutability": "nonpayable",
      "type": "constructor"
    },
    {
      "anonymous": false,
      "inputs": [
        {
          "indexed": false,
          "internalType": "address",
          "name": "sharedAccountAddress",
          "type": "address"
        }
      ],
      "name": "SharedAccountCreated",
      "type": "event"
    },
    {
      "inputs": [
        {
          "internalType": "string",
          "name": "name",
          "type": "string"
        },
        {
          "internalType": "string",
          "name": "description",
          "type": "string"
        },
        {
          "internalType": "string",
          "name": "erc20Name",
          "type": "string"
        },
        {
          "internalType": "address",
          "name": "erc20Address",
          "type": "address"
        }
      ],
      "name": "create",
      "outputs": [
        {
          "internalType": "bool",
          "name": "",
          "type": "bool"
        }
      ],
      "stateMutability": "nonpayable",
      "type": "function"
    },
    {
      "inputs": [],
      "name": "mySharedAccounts",
      "outputs": [
        {
          "internalType": "address[]",
          "name": "",
          "type": "address[]"
        }
      ],
      "stateMutability": "view",
      "type": "function"
    },
    {
      "inputs": [
        {
          "internalType": "address",
          "name": "sharedAccount",
          "type": "address"
        },
        {
          "internalType": "address",
          "name": "newAdmin",
          "type": "address"
        }
      ],
      "name": "grandAdminRole",
      "outputs": [
        {
          "internalType": "bool",
          "name": "",
          "type": "bool"
        }
      ],
      "stateMutability": "nonpayable",
      "type": "function"
    },
    {
      "inputs": [
        {
          "internalType": "address",
          "name": "sharedAccount",
          "type": "address"
        },
        {
          "internalType": "address",
          "name": "oldAdmin",
          "type": "address"
        }
      ],
      "name": "revokeAdminRole",
      "outputs": [
        {
          "internalType": "bool",
          "name": "",
          "type": "bool"
        }
      ],
      "stateMutability": "nonpayable",
      "type": "function"
    }
  ],
  "bytecode": "0x608060405234801561001057600080fd5b506040516137073803806137078339818101604052602081101561003357600080fd5b810190808051906020019092919050505080600260006101000a81548173ffffffffffffffffffffffffffffffffffffffff021916908373ffffffffffffffffffffffffffffffffffffffff16021790555050613672806100956000396000f3fe60806040523480156200001157600080fd5b5060043610620000525760003560e01c80631c9cfdb5146200005757806382cbdc0f14620000d4578063b15ecf6a14620002ff578063c4b11a7d146200037c575b600080fd5b620000bc600480360360408110156200006f57600080fd5b81019080803573ffffffffffffffffffffffffffffffffffffffff169060200190929190803573ffffffffffffffffffffffffffffffffffffffff169060200190929190505050620003df565b60405180821515815260200191505060405180910390f35b620002e760048036036080811015620000ec57600080fd5b81019080803590602001906401000000008111156200010a57600080fd5b8201836020820111156200011d57600080fd5b803590602001918460018302840111640100000000831117156200014057600080fd5b91908080601f016020809104026020016040519081016040528093929190818152602001838380828437600081840152601f19601f82011690508083019250505050505050919291929080359060200190640100000000811115620001a457600080fd5b820183602082011115620001b757600080fd5b80359060200191846001830284011164010000000083111715620001da57600080fd5b91908080601f016020809104026020016040519081016040528093929190818152602001838380828437600081840152601f19601f820116905080830192505050505050509192919290803590602001906401000000008111156200023e57600080fd5b8201836020820111156200025157600080fd5b803590602001918460018302840111640100000000831117156200027457600080fd5b91908080601f016020809104026020016040519081016040528093929190818152602001838380828437600081840152601f19601f820116905080830192505050505050509192919290803573ffffffffffffffffffffffffffffffffffffffff1690602001909291905050506200053f565b60405180821515815260200191505060405180910390f35b62000364600480360360408110156200031757600080fd5b81019080803573ffffffffffffffffffffffffffffffffffffffff169060200190929190803573ffffffffffffffffffffffffffffffffffffffff16906020019092919050505062000834565b60405180821515815260200191505060405180910390f35b6200038662000994565b6040518080602001828103825283818151815260200191508051906020019060200280838360005b83811015620003cb578082015181840152602081019050620003ae565b505050509050019250505060405180910390f35b6000808390508073ffffffffffffffffffffffffffffffffffffffff1663c634b78e846040518263ffffffff1660e01b8152600401808273ffffffffffffffffffffffffffffffffffffffff168152602001915050602060405180830381600087803b1580156200044f57600080fd5b505af115801562000464573d6000803e3d6000fd5b505050506040513d60208110156200047b57600080fd5b810190808051906020019092919050505050620004df846000808673ffffffffffffffffffffffffffffffffffffffff1673ffffffffffffffffffffffffffffffffffffffff16815260200190815260200160002062000aee90919063ffffffff16565b506200053383600160008773ffffffffffffffffffffffffffffffffffffffff1673ffffffffffffffffffffffffffffffffffffffff16815260200190815260200160002062000aee90919063ffffffff16565b50600191505092915050565b60008085858585600260009054906101000a900473ffffffffffffffffffffffffffffffffffffffff16604051620005779062000da8565b808060200180602001806020018673ffffffffffffffffffffffffffffffffffffffff1681526020018573ffffffffffffffffffffffffffffffffffffffff168152602001848103845289818151815260200191508051906020019080838360005b83811015620005f6578082015181840152602081019050620005d9565b50505050905090810190601f168015620006245780820380516001836020036101000a031916815260200191505b50848103835288818151815260200191508051906020019080838360005b838110156200065f57808201518184015260208101905062000642565b50505050905090810190601f1680156200068d5780820380516001836020036101000a031916815260200191505b50848103825287818151815260200191508051906020019080838360005b83811015620006c8578082015181840152602081019050620006ab565b50505050905090810190601f168015620006f65780820380516001836020036101000a031916815260200191505b5098505050505050505050604051809103906000f0801580156200071e573d6000803e3d6000fd5b5090506200077c816000806200073362000b20565b73ffffffffffffffffffffffffffffffffffffffff1673ffffffffffffffffffffffffffffffffffffffff16815260200190815260200160002062000aee90919063ffffffff16565b50620007d96200078b62000b20565b600160008473ffffffffffffffffffffffffffffffffffffffff1673ffffffffffffffffffffffffffffffffffffffff16815260200190815260200160002062000aee90919063ffffffff16565b507f636c7132a881ac8af439730c0a82cbbc4739b5600fadaa0b83b022a771f7d8ac81604051808273ffffffffffffffffffffffffffffffffffffffff16815260200191505060405180910390a16001915050949350505050565b6000808390508073ffffffffffffffffffffffffffffffffffffffff1663dccfe310846040518263ffffffff1660e01b8152600401808273ffffffffffffffffffffffffffffffffffffffff168152602001915050602060405180830381600087803b158015620008a457600080fd5b505af1158015620008b9573d6000803e3d6000fd5b505050506040513d6020811015620008d057600080fd5b81019080805190602001909291905050505062000934846000808673ffffffffffffffffffffffffffffffffffffffff1673ffffffffffffffffffffffffffffffffffffffff16815260200190815260200160002062000b2890919063ffffffff16565b506200098883600160008773ffffffffffffffffffffffffffffffffffffffff1673ffffffffffffffffffffffffffffffffffffffff16815260200190815260200160002062000b2890919063ffffffff16565b50600191505092915050565b606080620009e8600080620009a862000b20565b73ffffffffffffffffffffffffffffffffffffffff1673ffffffffffffffffffffffffffffffffffffffff16815260200190815260200160002062000b5a565b67ffffffffffffffff81118015620009ff57600080fd5b5060405190808252806020026020018201604052801562000a2f5781602001602082028036833780820191505090505b50905060005b815181101562000ae65762000a9160008062000a5062000b20565b73ffffffffffffffffffffffffffffffffffffffff1673ffffffffffffffffffffffffffffffffffffffff1681526020019081526020016000208262000b71565b82828151811062000a9e57fe5b602002602001019073ffffffffffffffffffffffffffffffffffffffff16908173ffffffffffffffffffffffffffffffffffffffff1681525050808060010191505062000a35565b508091505090565b600062000b18836000018373ffffffffffffffffffffffffffffffffffffffff1660001b62000b8d565b905092915050565b600033905090565b600062000b52836000018373ffffffffffffffffffffffffffffffffffffffff1660001b62000c01565b905092915050565b600062000b6a8260000162000cee565b9050919050565b600062000b82836000018362000cff565b60001c905092915050565b600062000b9b838362000d85565b62000bf657826000018290806001815401808255809150506001900390600052602060002001600090919091909150558260000180549050836001016000848152602001908152602001600020819055506001905062000bfb565b600090505b92915050565b6000808360010160008481526020019081526020016000205490506000811462000ce2576000600182039050600060018660000180549050039050600086600001828154811062000c4e57fe5b906000526020600020015490508087600001848154811062000c6c57fe5b906000526020600020018190555060018301876001016000838152602001908152602001600020819055508660000180548062000ca557fe5b6001900381819060005260206000200160009055905586600101600087815260200190815260200160002060009055600194505050505062000ce8565b60009150505b92915050565b600081600001805490509050919050565b60008183600001805490501162000d62576040517f08c379a00000000000000000000000000000000000000000000000000000000081526004018080602001828103825260228152602001806200361b6022913960400191505060405180910390fd5b82600001828154811062000d7257fe5b9060005260206000200154905092915050565b600080836001016000848152602001908152602001600020541415905092915050565b6128648062000db78339019056fe60806040523480156200001157600080fd5b506040516200286438038062002864833981810160405260a08110156200003757600080fd5b81019080805160405193929190846401000000008211156200005857600080fd5b838201915060208201858111156200006f57600080fd5b82518660018202830111640100000000821117156200008d57600080fd5b8083526020830192505050908051906020019080838360005b83811015620000c3578082015181840152602081019050620000a6565b50505050905090810190601f168015620000f15780820380516001836020036101000a031916815260200191505b50604052602001805160405193929190846401000000008211156200011557600080fd5b838201915060208201858111156200012c57600080fd5b82518660018202830111640100000000821117156200014a57600080fd5b8083526020830192505050908051906020019080838360005b838110156200018057808201518184015260208101905062000163565b50505050905090810190601f168015620001ae5780820380516001836020036101000a031916815260200191505b5060405260200180516040519392919084640100000000821115620001d257600080fd5b83820191506020820185811115620001e957600080fd5b82518660018202830111640100000000821117156200020757600080fd5b8083526020830192505050908051906020019080838360005b838110156200023d57808201518184015260208101905062000220565b50505050905090810190601f1680156200026b5780820380516001836020036101000a031916815260200191505b50604052602001805190602001909291908051906020019092919050505060006200029b620004c660201b60201c565b9050806000806101000a81548173ffffffffffffffffffffffffffffffffffffffff021916908373ffffffffffffffffffffffffffffffffffffffff1602179055508073ffffffffffffffffffffffffffffffffffffffff16600073ffffffffffffffffffffffffffffffffffffffff167f8be0079c531659141344cd1fd0a4f28419497f9722a3daafe3b4186f6b6457e060405160405180910390a3506200035d6000801b62000351620004c660201b60201c565b620004ce60201b60201c565b6200039e7fa49807205ce4d355092ef5a8a18f56e8913cf4a201fbe287825b095693c2177562000392620004c660201b60201c565b620004ce60201b60201c565b8460029080519060200190620003b69291906200065d565b508360039080519060200190620003cf9291906200065d565b50816005846040518082805190602001908083835b60208310620004095780518252602082019150602081019050602083039250620003e4565b6001836020036101000a038019825116818451168082178552505050505050905001915050908152602001604051809103902060006101000a81548173ffffffffffffffffffffffffffffffffffffffff021916908373ffffffffffffffffffffffffffffffffffffffff16021790555080600460006101000a81548173ffffffffffffffffffffffffffffffffffffffff021916908373ffffffffffffffffffffffffffffffffffffffff160217905550505050505062000703565b600033905090565b620004e08282620004e460201b60201c565b5050565b6200051381600160008581526020019081526020016000206000016200058860201b62001a621790919060201c565b15620005845762000529620004c660201b60201c565b73ffffffffffffffffffffffffffffffffffffffff168173ffffffffffffffffffffffffffffffffffffffff16837f2f8788117e7eff1d82e926ec794901d17c78024a50270940304540a733656f0d60405160405180910390a45b5050565b6000620005b8836000018373ffffffffffffffffffffffffffffffffffffffff1660001b620005c060201b60201c565b905092915050565b6000620005d483836200063a60201b60201c565b6200062f57826000018290806001815401808255809150506001900390600052602060002001600090919091909150558260000180549050836001016000848152602001908152602001600020819055506001905062000634565b600090505b92915050565b600080836001016000848152602001908152602001600020541415905092915050565b828054600181600116156101000203166002900490600052602060002090601f016020900481019282601f10620006a057805160ff1916838001178555620006d1565b82800160010185558215620006d1579182015b82811115620006d0578251825591602001919060010190620006b3565b5b509050620006e09190620006e4565b5090565b5b80821115620006ff576000816000905550600101620006e5565b5090565b61215180620007136000396000f3fe608060405234801561001057600080fd5b50600436106101165760003560e01c806391d14854116100a2578063ca15c87311610071578063ca15c8731461065a578063d547741f1461069c578063dccfe310146106ea578063e80a1bbb14610744578063f2fde38b1461081557610116565b806391d148541461048d578063a1e55e59146104f1578063a217fddf146105e2578063c634b78e1461060057610116565b8063715018a6116100e9578063715018a6146102f457806375b238fc146102fe5780638da5cb5b1461031c5780638e27d719146103505780639010d07c1461042b57610116565b8063248a9ca31461011b5780632f2ff15d1461015d57806336568abe146101ab5780635a73b0bf146101f9575b600080fd5b6101476004803603602081101561013157600080fd5b8101908080359060200190929190505050610859565b6040518082815260200191505060405180910390f35b6101a96004803603604081101561017357600080fd5b8101908080359060200190929190803573ffffffffffffffffffffffffffffffffffffffff169060200190929190505050610879565b005b6101f7600480360360408110156101c157600080fd5b8101908080359060200190929190803573ffffffffffffffffffffffffffffffffffffffff169060200190929190505050610903565b005b6102dc6004803603606081101561020f57600080fd5b810190808035906020019064010000000081111561022c57600080fd5b82018360208201111561023e57600080fd5b8035906020019184600183028401116401000000008311171561026057600080fd5b91908080601f016020809104026020016040519081016040528093929190818152602001838380828437600081840152601f19601f820116905080830192505050505050509192919290803573ffffffffffffffffffffffffffffffffffffffff1690602001909291908035906020019092919050505061099c565b60405180821515815260200191505060405180910390f35b6102fc610f76565b005b6103066110fc565b6040518082815260200191505060405180910390f35b610324611120565b604051808273ffffffffffffffffffffffffffffffffffffffff16815260200191505060405180910390f35b6104136004803603604081101561036657600080fd5b810190808035906020019064010000000081111561038357600080fd5b82018360208201111561039557600080fd5b803590602001918460018302840111640100000000831117156103b757600080fd5b91908080601f016020809104026020016040519081016040528093929190818152602001838380828437600081840152601f19601f82011690508083019250505050505050919291929080359060200190929190505050611149565b60405180821515815260200191505060405180910390f35b6104616004803603604081101561044157600080fd5b810190808035906020019092919080359060200190929190505050611423565b604051808273ffffffffffffffffffffffffffffffffffffffff16815260200191505060405180910390f35b6104d9600480360360408110156104a357600080fd5b8101908080359060200190929190803573ffffffffffffffffffffffffffffffffffffffff169060200190929190505050611455565b60405180821515815260200191505060405180910390f35b6105ca6004803603604081101561050757600080fd5b810190808035906020019064010000000081111561052457600080fd5b82018360208201111561053657600080fd5b8035906020019184600183028401116401000000008311171561055857600080fd5b91908080601f016020809104026020016040519081016040528093929190818152602001838380828437600081840152601f19601f820116905080830192505050505050509192919290803573ffffffffffffffffffffffffffffffffffffffff169060200190929190505050611487565b60405180821515815260200191505060405180910390f35b6105ea6115de565b6040518082815260200191505060405180910390f35b6106426004803603602081101561061657600080fd5b81019080803573ffffffffffffffffffffffffffffffffffffffff1690602001909291905050506115e5565b60405180821515815260200191505060405180910390f35b6106866004803603602081101561067057600080fd5b810190808035906020019092919050505061161a565b6040518082815260200191505060405180910390f35b6106e8600480360360408110156106b257600080fd5b8101908080359060200190929190803573ffffffffffffffffffffffffffffffffffffffff169060200190929190505050611641565b005b61072c6004803603602081101561070057600080fd5b81019080803573ffffffffffffffffffffffffffffffffffffffff1690602001909291905050506116cb565b60405180821515815260200191505060405180910390f35b6107fd6004803603602081101561075a57600080fd5b810190808035906020019064010000000081111561077757600080fd5b82018360208201111561078957600080fd5b803590602001918460018302840111640100000000831117156107ab57600080fd5b91908080601f016020809104026020016040519081016040528093929190818152602001838380828437600081840152601f19601f820116905080830192505050505050509192919290505050611700565b60405180821515815260200191505060405180910390f35b6108576004803603602081101561082b57600080fd5b81019080803573ffffffffffffffffffffffffffffffffffffffff169060200190929190505050611857565b005b600060016000838152602001908152602001600020600201549050919050565b6108a0600160008481526020019081526020016000206002015461089b611a92565b611455565b6108f5576040517f08c379a000000000000000000000000000000000000000000000000000000000815260040180806020018281038252602f815260200180612019602f913960400191505060405180910390fd5b6108ff8282611a9a565b5050565b61090b611a92565b73ffffffffffffffffffffffffffffffffffffffff168173ffffffffffffffffffffffffffffffffffffffff161461098e576040517f08c379a000000000000000000000000000000000000000000000000000000000815260040180806020018281038252602f8152602001806120ed602f913960400191505060405180910390fd5b6109988282611b2e565b5050565b600083600073ffffffffffffffffffffffffffffffffffffffff166005826040518082805190602001908083835b602083106109ed57805182526020820191506020810190506020830392506109ca565b6001836020036101000a038019825116818451168082178552505050505050905001915050908152602001604051809103902060009054906101000a900473ffffffffffffffffffffffffffffffffffffffff1673ffffffffffffffffffffffffffffffffffffffff161415610aae576040517f08c379a000000000000000000000000000000000000000000000000000000000815260040180806020018281038252602e8152602001806120bf602e913960400191505060405180910390fd5b610adf7fa49807205ce4d355092ef5a8a18f56e8913cf4a201fbe287825b095693c21775610ada611a92565b611455565b610b51576040517f08c379a00000000000000000000000000000000000000000000000000000000081526004018080602001828103825260168152602001807f43616c6c6572206973206e6f7420616e2041646d696e0000000000000000000081525060200191505060405180910390fd5b60006005866040518082805190602001908083835b60208310610b895780518252602082019150602081019050602083039250610b66565b6001836020036101000a038019825116818451168082178552505050505050905001915050908152602001604051809103902060009054906101000a900473ffffffffffffffffffffffffffffffffffffffff1690506000610bf7610bef866004611bc2565b6103e8611c48565b9050600081860390508273ffffffffffffffffffffffffffffffffffffffff1663095ea7b330836040518363ffffffff1660e01b8152600401808373ffffffffffffffffffffffffffffffffffffffff16815260200182815260200192505050602060405180830381600087803b158015610c7157600080fd5b505af1158015610c85573d6000803e3d6000fd5b505050506040513d6020811015610c9b57600080fd5b8101908080519060200190929190505050508273ffffffffffffffffffffffffffffffffffffffff166323b872dd3089846040518463ffffffff1660e01b8152600401808473ffffffffffffffffffffffffffffffffffffffff1681526020018373ffffffffffffffffffffffffffffffffffffffff1681526020018281526020019350505050602060405180830381600087803b158015610d3c57600080fd5b505af1158015610d50573d6000803e3d6000fd5b505050506040513d6020811015610d6657600080fd5b8101908080519060200190929190505050508273ffffffffffffffffffffffffffffffffffffffff1663095ea7b330846040518363ffffffff1660e01b8152600401808373ffffffffffffffffffffffffffffffffffffffff16815260200182815260200192505050602060405180830381600087803b158015610de957600080fd5b505af1158015610dfd573d6000803e3d6000fd5b505050506040513d6020811015610e1357600080fd5b8101908080519060200190929190505050508273ffffffffffffffffffffffffffffffffffffffff166323b872dd30600460009054906101000a900473ffffffffffffffffffffffffffffffffffffffff16856040518463ffffffff1660e01b8152600401808473ffffffffffffffffffffffffffffffffffffffff1681526020018373ffffffffffffffffffffffffffffffffffffffff1681526020018281526020019350505050602060405180830381600087803b158015610ed657600080fd5b505af1158015610eea573d6000803e3d6000fd5b505050506040513d6020811015610f0057600080fd5b8101908080519060200190929190505050507f884edad9ce6fa2440d8a54cc123490eb96d2768479d49ff9c7366125a94243648782604051808373ffffffffffffffffffffffffffffffffffffffff1681526020018281526020019250505060405180910390a160019450505050509392505050565b610f7e611a92565b73ffffffffffffffffffffffffffffffffffffffff1660008054906101000a900473ffffffffffffffffffffffffffffffffffffffff1673ffffffffffffffffffffffffffffffffffffffff161461103e576040517f08c379a00000000000000000000000000000000000000000000000000000000081526004018080602001828103825260208152602001807f4f776e61626c653a2063616c6c6572206973206e6f7420746865206f776e657281525060200191505060405180910390fd5b600073ffffffffffffffffffffffffffffffffffffffff1660008054906101000a900473ffffffffffffffffffffffffffffffffffffffff1673ffffffffffffffffffffffffffffffffffffffff167f8be0079c531659141344cd1fd0a4f28419497f9722a3daafe3b4186f6b6457e060405160405180910390a360008060006101000a81548173ffffffffffffffffffffffffffffffffffffffff021916908373ffffffffffffffffffffffffffffffffffffffff160217905550565b7fa49807205ce4d355092ef5a8a18f56e8913cf4a201fbe287825b095693c2177581565b60008060009054906101000a900473ffffffffffffffffffffffffffffffffffffffff16905090565b600082600073ffffffffffffffffffffffffffffffffffffffff166005826040518082805190602001908083835b6020831061119a5780518252602082019150602081019050602083039250611177565b6001836020036101000a038019825116818451168082178552505050505050905001915050908152602001604051809103902060009054906101000a900473ffffffffffffffffffffffffffffffffffffffff1673ffffffffffffffffffffffffffffffffffffffff16141561125b576040517f08c379a000000000000000000000000000000000000000000000000000000000815260040180806020018281038252602e8152602001806120bf602e913960400191505060405180910390fd5b60006005856040518082805190602001908083835b602083106112935780518252602082019150602081019050602083039250611270565b6001836020036101000a038019825116818451168082178552505050505050905001915050908152602001604051809103902060009054906101000a900473ffffffffffffffffffffffffffffffffffffffff1690508073ffffffffffffffffffffffffffffffffffffffff166323b872dd61130d611a92565b30876040518463ffffffff1660e01b8152600401808473ffffffffffffffffffffffffffffffffffffffff1681526020018373ffffffffffffffffffffffffffffffffffffffff1681526020018281526020019350505050602060405180830381600087803b15801561137f57600080fd5b505af1158015611393573d6000803e3d6000fd5b505050506040513d60208110156113a957600080fd5b8101908080519060200190929190505050507fd4f7d34af79a91579ffbb26e18ffb9866c734383ca40131b18e2ca4db8f6649c6113e4611a92565b85604051808373ffffffffffffffffffffffffffffffffffffffff1681526020018281526020019250505060405180910390a160019250505092915050565b600061144d8260016000868152602001908152602001600020600001611c9290919063ffffffff16565b905092915050565b600061147f8260016000868152602001908152602001600020600001611cac90919063ffffffff16565b905092915050565b60006114ba7fa49807205ce4d355092ef5a8a18f56e8913cf4a201fbe287825b095693c217756114b5611a92565b611455565b61152c576040517f08c379a00000000000000000000000000000000000000000000000000000000081526004018080602001828103825260168152602001807f43616c6c6572206973206e6f7420616e2041646d696e0000000000000000000081525060200191505060405180910390fd5b816005846040518082805190602001908083835b602083106115635780518252602082019150602081019050602083039250611540565b6001836020036101000a038019825116818451168082178552505050505050905001915050908152602001604051809103902060006101000a81548173ffffffffffffffffffffffffffffffffffffffff021916908373ffffffffffffffffffffffffffffffffffffffff1602179055506001905092915050565b6000801b81565b60006116117fa49807205ce4d355092ef5a8a18f56e8913cf4a201fbe287825b095693c2177583610879565b60019050919050565b600061163a60016000848152602001908152602001600020600001611cdc565b9050919050565b6116686001600084815260200190815260200160002060020154611663611a92565b611455565b6116bd576040517f08c379a000000000000000000000000000000000000000000000000000000000815260040180806020018281038252603081526020018061206e6030913960400191505060405180910390fd5b6116c78282611b2e565b5050565b60006116f77fa49807205ce4d355092ef5a8a18f56e8913cf4a201fbe287825b095693c2177583611641565b60019050919050565b60006117337fa49807205ce4d355092ef5a8a18f56e8913cf4a201fbe287825b095693c2177561172e611a92565b611455565b6117a5576040517f08c379a00000000000000000000000000000000000000000000000000000000081526004018080602001828103825260168152602001807f43616c6c6572206973206e6f7420616e2041646d696e0000000000000000000081525060200191505060405180910390fd5b60006005836040518082805190602001908083835b602083106117dd57805182526020820191506020810190506020830392506117ba565b6001836020036101000a038019825116818451168082178552505050505050905001915050908152602001604051809103902060006101000a81548173ffffffffffffffffffffffffffffffffffffffff021916908373ffffffffffffffffffffffffffffffffffffffff16021790555060019050919050565b61185f611a92565b73ffffffffffffffffffffffffffffffffffffffff1660008054906101000a900473ffffffffffffffffffffffffffffffffffffffff1673ffffffffffffffffffffffffffffffffffffffff161461191f576040517f08c379a00000000000000000000000000000000000000000000000000000000081526004018080602001828103825260208152602001807f4f776e61626c653a2063616c6c6572206973206e6f7420746865206f776e657281525060200191505060405180910390fd5b600073ffffffffffffffffffffffffffffffffffffffff168173ffffffffffffffffffffffffffffffffffffffff1614156119a5576040517f08c379a00000000000000000000000000000000000000000000000000000000081526004018080602001828103825260268152602001806120486026913960400191505060405180910390fd5b8073ffffffffffffffffffffffffffffffffffffffff1660008054906101000a900473ffffffffffffffffffffffffffffffffffffffff1673ffffffffffffffffffffffffffffffffffffffff167f8be0079c531659141344cd1fd0a4f28419497f9722a3daafe3b4186f6b6457e060405160405180910390a3806000806101000a81548173ffffffffffffffffffffffffffffffffffffffff021916908373ffffffffffffffffffffffffffffffffffffffff16021790555050565b6000611a8a836000018373ffffffffffffffffffffffffffffffffffffffff1660001b611cf1565b905092915050565b600033905090565b611ac28160016000858152602001908152602001600020600001611a6290919063ffffffff16565b15611b2a57611acf611a92565b73ffffffffffffffffffffffffffffffffffffffff168173ffffffffffffffffffffffffffffffffffffffff16837f2f8788117e7eff1d82e926ec794901d17c78024a50270940304540a733656f0d60405160405180910390a45b5050565b611b568160016000858152602001908152602001600020600001611d6190919063ffffffff16565b15611bbe57611b63611a92565b73ffffffffffffffffffffffffffffffffffffffff168173ffffffffffffffffffffffffffffffffffffffff16837ff6391f5c32d9c69d2a47ea670b442974b53935d1edc7fd64eb21e047a839171b60405160405180910390a45b5050565b600080831415611bd55760009050611c42565b6000828402905082848281611be657fe5b0414611c3d576040517f08c379a000000000000000000000000000000000000000000000000000000000815260040180806020018281038252602181526020018061209e6021913960400191505060405180910390fd5b809150505b92915050565b6000611c8a83836040518060400160405280601a81526020017f536166654d6174683a206469766973696f6e206279207a65726f000000000000815250611d91565b905092915050565b6000611ca18360000183611e57565b60001c905092915050565b6000611cd4836000018373ffffffffffffffffffffffffffffffffffffffff1660001b611eda565b905092915050565b6000611cea82600001611efd565b9050919050565b6000611cfd8383611eda565b611d56578260000182908060018154018082558091505060019003906000526020600020016000909190919091505582600001805490508360010160008481526020019081526020016000208190555060019050611d5b565b600090505b92915050565b6000611d89836000018373ffffffffffffffffffffffffffffffffffffffff1660001b611f0e565b905092915050565b60008083118290611e3d576040517f08c379a00000000000000000000000000000000000000000000000000000000081526004018080602001828103825283818151815260200191508051906020019080838360005b83811015611e02578082015181840152602081019050611de7565b50505050905090810190601f168015611e2f5780820380516001836020036101000a031916815260200191505b509250505060405180910390fd5b506000838581611e4957fe5b049050809150509392505050565b600081836000018054905011611eb8576040517f08c379a0000000000000000000000000000000000000000000000000000000008152600401808060200182810382526022815260200180611ff76022913960400191505060405180910390fd5b826000018281548110611ec757fe5b9060005260206000200154905092915050565b600080836001016000848152602001908152602001600020541415905092915050565b600081600001805490509050919050565b60008083600101600084815260200190815260200160002054905060008114611fea5760006001820390506000600186600001805490500390506000866000018281548110611f5957fe5b9060005260206000200154905080876000018481548110611f7657fe5b9060005260206000200181905550600183018760010160008381526020019081526020016000208190555086600001805480611fae57fe5b60019003818190600052602060002001600090559055866001016000878152602001908152602001600020600090556001945050505050611ff0565b60009150505b9291505056fe456e756d657261626c655365743a20696e646578206f7574206f6620626f756e6473416363657373436f6e74726f6c3a2073656e646572206d75737420626520616e2061646d696e20746f206772616e744f776e61626c653a206e6577206f776e657220697320746865207a65726f2061646472657373416363657373436f6e74726f6c3a2073656e646572206d75737420626520616e2061646d696e20746f207265766f6b65536166654d6174683a206d756c7469706c69636174696f6e206f766572666c6f775468697320736861726564206163636f756e7420646f65736e277420737570706f72742074686973206572633230416363657373436f6e74726f6c3a2063616e206f6e6c792072656e6f756e636520726f6c657320666f722073656c66a26469706673582212200a9bf39cad10416d1558346eebc75d2905d8e5c18a1cc2ab0b083d4fa46d613664736f6c63430007000033456e756d657261626c655365743a20696e646578206f7574206f6620626f756e6473a2646970667358221220d8cf62c9f2e2e0f975215e0b67df94f48248894824583690a45ab08875a5255264736f6c63430007000033",
  "immutableReferences": {},
  "source": "// SPDX-License-Identifier: MIT\npragma solidity >=0.7.0;\n\nimport \"@openzeppelin/contracts/GSN/Context.sol\";\nimport \"@openzeppelin/contracts/utils/EnumerableSet.sol\";\n\nimport \"./SharedAccount.sol\";\n\ncontract SharedAccountManager is Context {\n    using EnumerableSet for EnumerableSet.AddressSet;\n\n    mapping(address => EnumerableSet.AddressSet) private userToSharedAccounts;\n    mapping(address => EnumerableSet.AddressSet) private sharedAccountsToUser;\n\n    address feeAddress;\n\n    //  This event is emitted when a new SharedAccount is created\n    event SharedAccountCreated(address sharedAccountAddress);\n\n    constructor(address feeTo) {\n        feeAddress = feeTo;\n    }\n\n    function create(\n        string memory name,\n        string memory description,\n        string memory erc20Name,\n        address erc20Address\n    ) public returns (bool) {\n        SharedAccount sharedAccount =\n            new SharedAccount(\n                name,\n                description,\n                erc20Name,\n                erc20Address,\n                feeAddress\n            );\n        userToSharedAccounts[_msgSender()].add(address(sharedAccount));\n        sharedAccountsToUser[address(sharedAccount)].add(_msgSender());\n        emit SharedAccountCreated(address(sharedAccount));\n        return true;\n    }\n\n    function mySharedAccounts() public view returns (address[] memory) {\n        address[] memory sharedAccounts =\n            new address[](\n                EnumerableSet.length(userToSharedAccounts[_msgSender()])\n            );\n        for (uint256 i = 0; i < sharedAccounts.length; i++) {\n            sharedAccounts[i] = address(\n                EnumerableSet.at(userToSharedAccounts[_msgSender()], i)\n            );\n        }\n        return sharedAccounts;\n    }\n\n    function grandAdminRole(address sharedAccount, address newAdmin)\n        public\n        returns (bool)\n    {\n        ISharedAccount account = ISharedAccount(sharedAccount);\n        account.grantAdminRole(newAdmin);\n        userToSharedAccounts[newAdmin].add(address(sharedAccount));\n        sharedAccountsToUser[address(sharedAccount)].add(newAdmin);\n        return true;\n    }\n\n    function revokeAdminRole(address sharedAccount, address oldAdmin)\n        public\n        returns (bool)\n    {\n        ISharedAccount account = ISharedAccount(sharedAccount);\n        account.removeAdminRole(oldAdmin);\n        userToSharedAccounts[oldAdmin].remove(sharedAccount);\n        sharedAccountsToUser[sharedAccount].remove(oldAdmin);\n        return true;\n    }\n}\n",
  "sourcePath": "/home/kleak/Work/github.com/Les-ruisseulleurs/shared_account/contracts/SharedAccountManager.sol",
  "compiler": {
    "name": "solc",
    "version": "0.7.0+commit.9e61f92b.Emscripten.clang"
  },
  "schemaVersion": "3.3.2",
  "updatedAt": "2021-01-17T18:26:32.844Z",
  "devdoc": {
    "kind": "dev",
    "methods": {},
    "version": 1
  },
  "userdoc": {
    "kind": "user",
    "methods": {},
    "version": 1
  }
}